S00F0000627574746F6E732E7372656306
S11300000C9434000C9451000C9451000C94510045
S11300100C9451000C9495010C9451000C945100D3
S11300200C9451000C9451000C9451000C94510008
S11300300C9451000C94EA010C9451000C9451005E
S11300400C9477080C9451000C9451000C945100BA
S11300500C9486010C9451000C9451000C945100A2
S11300600C9451000C94510011241FBECFEFD4E026
S1130070DEBFCDBF11E0A0E0B1E0E6E0FBE102C0ED
S113008005900D92A430B107D9F721E0A4E0B1E0C6
S113009001C01D92A536B207E1F70E94E0000C945E
S11300A0810D0C940000CF92DF92EF92FF926B01CE
S11300B07C012DEC3CEC4CE85FE30E948B0B1816A2
S11300C024F02E9A409841981BC02DEC3CEC4CE84F
S11300D05FE3C701B6010E94B40C181674F42DEC4A
S11300E03CEC4CE050E4C701B6010E948B0B882322
S11300F024F42E984098419A03C02E98409A41982F
S1130100FF90EF90DF90CF90089583EF91E00197F7
S1130110F1F700C00000EAE7F0E0808180648083AA
S1130120808186FDFDCF609178008091790070E038
S1130130782B072E000C880B990B0E94040C20E0EE
S113014030E040E85AE30E94B90C23E333E343E58B
S113015050E40E94B90C0E945300089587E88093EC
S11301607A0082E480937C000895269A389A399A1A
S11301702E9840984198229A2A9A0E94AE00089597
S1130180509852985398549855985698E8E6F0E049
S1130190808184608083EDE6F0E0808181608083EB
S11301A08081846080838081886080838081806195
S11301B080838081806280838081806480830895CD
S11301C00E94C0008CE090E00E94DD0A0E94B5000D
S11301D00E9499090E94850978948AE00E94160B6E
S11301E08BE00E94160B8CE00E94160B8DE00E949F
S11301F0160B0E94280980E18A95F1F700C00E943D
S11302004509BC01990F880B990B0E94040C20E04E
S113021030E043E053E40E94900B60932301709319
S1130220240180932501909326010E946509BC0155
S1130230990F880B990B0E94040C20E030E043E0F6
S113024053E40E94900B60934301709344018093A4
S1130250450190934601C0903B01D0903C01E09051
S11302603D01F0903E0120E030E040EF51E4C70151
S1130270B6010E94B40C181634F480910401826013
S1130280809304010FC020E030E040EF51ECC7013F
S1130290B6010E948B0B88232CF4809104018160A9
S11302A080930401C0903701D0903801E090390167
S11302B0F0903A0120E030E04CE852E4C701B60186
S11302C00E94B40C181634F4809104018460809365
S11302D004010FC020E030E04CE852ECC701B60145
S11302E00E948B0B88232CF48091040188608093F6
S11302F00401809104010E94160B1092040189EFFD
S113030090E00197F1F700C00000A5CF1F920F9273
S11303100FB60F9211248F9380E48093C0008F91C5
S11303200F900FBE0F901F9018951F920F920FB64B
S11303300F9211242F933F938F939F9329B1809110
S1130340050190910601822729B130E0309306011E
S11303502093050180FF07C0489B05C090910401CC
S113036092609093040182FF07C04A9B05C090915C
S1130370040191609093040183FF07C04B9B05C067
S11303809091040194609093040184FF07C04C9BF6
S113039005C09091040198609093040185FF07C003
S11303A04D9B05C09091040199669093040186FFCA
S11303B007C04E9B05C080910401826080930401B4
S11303C0DA9A9F918F913F912F910F900FBE0F90CA
S11303D01F9018951F920F920FB60F9211242F930E
S11303E03F934F935F936F937F938F939F93AF93B9
S11303F0BF93EF93FF930E94850084E690E090936F
S1130400850080938400FF91EF91BF91AF919F91FC
S11304108F917F916F915F914F913F912F910F90A9
S11304200FBE0F901F901895AF92BF92CF92DF929C
S1130430FF920F931F93CF93DF936623B9F1C52FD8
S1130440D42FF62E182F80ED0E94320A812F0E949D
S1130450880A83E08A95F1F7000081ED0E94320A50
S11304600D2F1C2FCC24CA94CF0CD12CEFEFCE1A15
S1130470DE0AC0E0D0E0AF2CB12CF1E0AF1AB10835
S1130480AC16BD0629F40E94C30AF801808304C097
S11304900E94A90AF801808321960F5F1F4FCC1593
S11304A0DD0571F7CF2D0E94780A01C0C0E08C2FC2
S11304B0DF91CF911F910F91FF90DF90CF90BF906C
S11304C0AF900895AB0161E00E9414020895FF9279
S11304D00F931F93CF93DF931F92CDB7DEB7F62E02
S11304E08A01BE016F5F7F4F0E94620221E030E00B
S11304F002C0220F331FFA94E2F799812923F801ED
S113050020830F90DF91CF911F910F91FF90089559
S11305104F925F926F927F928F929F92AF92BF920F
S1130520CF92DF92EF92FF920F931F93CF93DF93BB
S1130530CDB7DEB7A4970FB6F894DEBF0FBECDBF1C
S11305406D877E878F87988B298B3A8B4B8B5C8B3F
S1130550ED8AFE8A0F8B188F20E030E0A901C601D6
S1130560B5010E948B0B811117C020E030E0A90176
S11305706FA978AD89AD9AAD0E948B0B81110CC027
S113058020E030E0A9016BAD7CAD8DAD9EAD0E9445
S11305908B0B882309F41AC2A6019501C601B50183
S11305A00E94B90C2B013C012FA938AD49AD5AADBD
S11305B0CA01B9010E94B90C69837A838B839C8335
S11305C09B01AC01C301B2010E941F0B6D8F7E8F92
S11305D08F8F98A32BAD3CAD4DAD5EADCA01B90173
S11305E00E94B90C698F7A8F8B8F9C8F29813A81F5
S11305F04B815C81C301B2010E941F0B2B013C01A2
S1130600298D3A8D4B8D5C8DC301B2010E941F0B65
S11306100E942C0D2B013C019B01AC01C601B501CC
S11306200E94900B69837A838B839C83A30192013C
S11306306FA978AD89AD9AAD0E94900B6D837E83CE
S11306408F839887A30192016BAD7CAD8DAD9EAD78
S11306500E94900B69877A878B879C8760911B0126
S113066070911C0180911D0190911E012091130134
S113067030911401409115015091160180900001B0
S113068090900101A0900201B090030140901701E5
S1130690509018016090190170901A010E94B90CD1
S11306A06B017C01A3019201C501B4010E94B90C44
S11306B09B01AC01C701B6010E941E0B698F7A8FA2
S11306C08B8F9C8F609100017091010180910201D8
S11306D09091030120911B0130911C0140911D0157
S11306E050911E018090170190901801A09019015B
S11306F0B0901A01409013015090140160901501BC
S1130700709016010E94B90C6B017C01A301920147
S1130710C501B4010E94B90C9B01AC01C701B6012B
S11307200E941F0B6D8F7E8F8F8F98A360910001A5
S113073070910101809102019091030120910001C7
S11307403091010140910201509103018090130105
S113075090901401A0901501B090160140901301DF
S11307605090140160901501709016010E94B90C0C
S113077020E030E040E05FE30E941E0B6B017C014F
S1130780A3019201C501B4010E94B90C9B01AC0103
S1130790C701B6010E941F0B6B017C019B01AC01D8
S11307A06D817E818F8198850E94B90C4B015C011B
S11307B02D8D3E8D4F8D58A169857A858B859C85BD
S11307C00E94B90C9B01AC01C501B4010E941E0B2F
S11307D069A37AA38BA39CA3298D3A8D4B8D5C8D41
S11307E069857A858B859C850E94B90C4B015C01D7
S11307F0A701960169817A818B819C810E94B90C41
S11308009B01AC01C501B4010E941E0B2B013C01EC
S11308102D8D3E8D4F8D58A169817A818B819C816C
S11308200E94B90C6B017C01298D3A8D4B8D5C8D36
S11308306D817E818F8198850E94B90C9B01AC01EA
S1130840C701B6010E941E0B4B015C01C0900F0151
S1130850D0901001E0901101F09012012DEC3CECCD
S11308604CE45EE369A17AA18BA19CA10E94B90C1E
S11308702AE83BE446E85CE30E94B90CA701960130
S11308800E941F0B60930F0170931001809311015C
S113089090931201C0900B01D0900C01E0900D01D7
S11308A0F0900E012DEC3CEC4CE45EE3C301B2018C
S11308B00E94B90C2AE83BE446E85CE30E94B90CC8
S11308C0A70196010E941F0B60930B0170930C010A
S11308D080930D0190930E01C0900701D090080100
S11308E0E0900901F0900A012DEC3CEC4CE45EE34D
S11308F0C501B4010E94B90C2AE83BE446E85CE374
S11309000E94B90CA70196010E941F0B6093070176
S1130910709308018093090190930A0120910F01BB
S11309203091100140911101509112016D857E8525
S11309308F8598890E941F0B6D837E838F83988790
S113094020910B0130910C0140910D0150910E0149
S113095069897A898B899C890E941F0B6B017C01B0
S113096020910701309108014091090150910A0139
S11309706D897E898F89988D0E941F0B69877A877C
S11309808B879C872D813E814F81588569A17AA1EF
S11309908BA19CA10E941F0B6D877E878F87988BEC
S11309A0A7019601C301B2010E941F0B698B7A8BC8
S11309B08B8B9C8B29853A854B855C85C501B4015D
S11309C00E941F0B6D8B7E8B8F8B988F2AE83BE4E4
S11309D046E05CE36D857E858F8598890E94B90C1D
S11309E06D837E838F8398872AE83BE446E05CE34B
S11309F069897A898B899C890E94B90C69877A876D
S1130A008B879C872AE83BE446E05CE36D897E891A
S1130A108F89988D0E94B90C6D877E878F87988BFC
S1130A208091000190910101A0910201B091030114
S1130A30898B9A8BAB8BBC8B80901B0190901C0193
S1130A40A0901D01B0901E01809117019091180192
S1130A50A0911901B0911A018D8B9E8BAF8BB88F29
S1130A60409013015090140160901501709016018C
S1130A70C0900001D0900101E0900201F0900301C8
S1130A80C501B40190582D813E814F8158850E9443
S1130A90B90C69837A838B839C832D893E894F8922
S1130AA0588D69857A858B859C850E94B90C9B013C
S1130AB0AC0169817A818B819C810E941E0B6983C0
S1130AC07A838B839C83A30192016D857E858F85B8
S1130AD098890E94B90C9B01AC0169817A818B8150
S1130AE09C810E941E0BA70196010E941F0B60931C
S1130AF000017093010180930201909303014090DF
S1130B001301509014016090150170901601C0906B
S1130B101B01D0901C01E0901D01F0901E01298959
S1130B203A894B895C896D817E818F8198850E9489
S1130B30B90C69837A838B839C832D893E894F8981
S1130B40588D6D857E858F8598890E94B90C9B018F
S1130B50AC0169817A818B819C810E941F0B69831E
S1130B607A838B839C83A301920169857A858B8523
S1130B709C850E94B90C9B01AC0169817A818B81AF
S1130B809C810E941E0BA70196010E941F0B60937B
S1130B901B0170931C0180931D0190931E014090D2
S1130BA01301509014016090150170901601C090CB
S1130BB01701D0901801E0901901F0901A012989C9
S1130BC03A894B895C8969857A858B859C850E94E5
S1130BD0B90C69837A838B839C83A50194016D8509
S1130BE07E858F8598890E94B90C9B01AC0169812F
S1130BF07A818B819C810E941E0B69837A838B830B
S1130C009C83A30192016D817E818F8198850E94CE
S1130C10B90C9B01AC0169817A818B819C810E9412
S1130C201F0BA70196010E941F0B6093170170937D
S1130C3018018093190190931A01C0901301D09068
S1130C401401E0901501F090160129893A894B8925
S1130C505C896D857E858F8598890E94B90C2B01EE
S1130C603C01A501940169857A858B859C850E9448
S1130C70B90C9B01AC01C301B2010E941F0B4B01D3
S1130C805C012D893E894F89588D6D817E818F81CC
S1130C9098850E94B90C9B01AC01C501B4010E9466
S1130CA01E0BA70196010E941F0B60931301709302
S1130CB014018093150190931601C0900001D09007
S1130CC00101E0900201F0900301809000019090F6
S1130CD00101A0900201B090030180911B01909149
S1130CE01C01A0911D01B0911E018D839E83AF83D1
S1130CF0B88780911B0190911C01A0911D01B091B6
S1130D001E0189879A87AB87BC87809117019091D0
S1130D101801A0911901B0911A018D879E87AF87A0
S1130D20B88B8091170190911801A0911901B0918D
S1130D301A01898B9A8BAB8BBC8B4090130150901A
S1130D401401609015017090160180911301909127
S1130D501401A0911501B09116018D8B9E8BAF8B60
S1130D60B88FA5019401C701B6010E94B90C69832B
S1130D707A838B839C8329853A854B855C856D8139
S1130D807E818F8198850E94B90C9B01AC01698199
S1130D907A818B819C810E941F0B69837A838B8368
S1130DA09C8329893A894B895C896D857E858F85E9
S1130DB098890E94B90C9B01AC0169817A818B816D
S1130DC09C810E941F0B69837A838B839C83A5017A
S1130DD09401C701B6010E94B90C6B017C012985FD
S1130DE03A854B855C856D817E818F8198850E94D3
S1130DF0B90C9B01AC01C701B6010E941F0B6B012A
S1130E007C0129893A894B895C896D857E858F852A
S1130E1098890E94B90C9B01AC01C701B6010E94DC
S1130E201F0B6B017C012D893E894F89588DC301AD
S1130E30B2010E94B90C9B01AC01C701B6010E942A
S1130E401F0B0E942C0D6B017C01609100017091BD
S1130E5001018091020190910301A70196010E9472
S1130E60900B6093000170930101809302019093B1
S1130E70030160911B0170911C0180911D019091EF
S1130E801E01A70196010E94900B60931B017093B1
S1130E901C0180931D0190931E01609117017091B4
S1130EA018018091190190911A01A70196010E94DD
S1130EB0900B60931701709318018093190190931C
S1130EC01A016091130170911401809115019091A0
S1130ED01601A70196010E94900B60931301709371
S1130EE014018093150190931601A4960FB6F894FB
S1130EF0DEBF0FBECDBFDF91CF911F910F91FF9049
S1130F00EF90DF90CF90BF90AF909F908F907F90A5
S1130F106F905F904F9008954F925F926F927F927F
S1130F20AF92BF92CF92DF92EF92FF920F931F93F3
S1130F30CF93DF93CDB7DEB72B970FB6F894DEBF10
S1130F400FBECDBF47E551E060E08AE30E9467022F
S1130F5080915701811105C023E02A95F1F7000023
S1130F60F1CF47E551E06EE08BE30E941402E7E520
S1130F70F1E0808161810281338139871481958117
S1130F809A876084718452844384E484F58470E095
S1130F90782B072E000C880B990B0E94040C20E080
S1130FA030E040E858E30E94B90C5B016C016F2DFE
S1130FB070E07E29635E7F4F072E000C880B990B2F
S1130FC00E94040C23E333E343E851E40E94900BB2
S1130FD024E33AEF4EE85CE30E94B90C69837A8318
S1130FE08B839C83642D70E0752969507109072EE9
S1130FF0000C880B990B0E94040C23E333E343E8B1
S113100051E40E94900B24E33AEF4EE85CE30E9423
S1131010B90C6D837E838F839887672D70E0762962
S1131020665D7F4F072E000C880B990B0E94040C01
S113103023E333E343E851E40E94900B24E33AEFC3
S11310404EE85CE30E94B90C2B013C012A85622F17
S113105070E0712B072E000C880B990B0E94040C76
S113106020E030E040E858E30E94B90C9F938F934E
S11310707F936F933985632F70E0CB01902B9B870F
S11310808A87BC01990F880B990B0E94040C20E0FD
S113109030E040E858E30E94B90C9F938F937F930C
S11310A06F93E980FA800B811C812D813E814F81F1
S11310B05885C301B2010E9488020FB6F894DEBFBE
S11310C00FBECDBF2B960FB6F894DEBF0FBECDBFBB
S11310D0DF91CF911F910F91FF90EF90DF90CF9010
S11310E0BF90AF907F906F905F904F9008951F9244
S11310F00F920FB60F9211242F933F934F935F9348
S11311006F937F938F939F93AF93BF93EF93FF93CB
S11311100E948C07FF91EF91BF91AF919F918F91A6
S11311207F916F915F914F913F912F910F900FBEDF
S11311300F901F9018950E94AA0980ED0E94C20981
S11311408BE60E94C20980E80E94C2090E94CA0973
S11311500895CF93C82F0E94AA0980ED0E94C20966
S11311608AE10E94C2098C2F0E94C2090E94CA0906
S1131170CF910895CF93C82F0E94AA0980ED0E94B1
S1131180C20989E10E94C2098C2F0E94C2090E94EF
S1131190CA09CF910895CF93C82F0E94AA0980ED60
S11311A00E94C2098BE60E94C2098C2F83700E94A0
S11311B0C2090E94CA09CF910895CF93C82F0E94F3
S11311C0AA0980ED0E94C2098BE10E94C2098C2FFA
S11311D083700E94C2090E94CA09CF910895CF93D7
S11311E0C82F0E94AA0980ED0E94C2098BE10E94C7
S11311F0C2098C2F83700E94C2090E94CA09CF9130
S11312000895CF93C82F0E94AA0980ED0E94C209B5
S11312108BE60E94C2098C2F8295880F880F807CF0
S11312200E94C2090E94CA09CF910895CF93DF9307
S11312301F92CDB7DEB722E0AE014F5F5F4F65E787
S113124088E60E94D30989810F90DF91CF91089598
S11312500E949B0881E28A95F1F7000081E00E94D8
S1131260CB0880E090E00E94A90883E00E94DD089A
S113127080E00E94EF0880E090E00E94BA0880E0DD
S11312800E9401090E9416090895CF93DF9300D0AC
S1131290CDB7DEB721E0AE014F5F5F4F63E488E670
S11312A00E94D30921E0AE014E5F5F4F64E488E6FB
S11312B00E94D309898190E0982F88272A81822B64
S11312C00F900F90DF91CF910895CF93DF9300D0CB
S11312D0CDB7DEB721E0AE014F5F5F4F65E488E62E
S11312E00E94D30921E0AE014E5F5F4F66E488E6B9
S11312F00E94D309898190E0982F88272A81822B24
S11313000F900F90DF91CF91089510928500109265
S1131310840088EC8093800085E0809381008AE1DA
S113132096E0909389008093880083E080936F0017
S1131330089580E388B91092B9008CE08093B800D6
S113134085E48093BC000895ECEBF0E08081882371
S1131350ECF7089584EA8093BC000E94A409E9EBA9
S1131360F0E08081887F8830E1F7089584EA8093F3
S1131370BC000E94A409E9EBF0E08081887F803101
S1131380E1F708958093BB0084E88093BC000E9439
S1131390A409089584E98093BC00ECEBF0E080811B
S11313A084FFFDCF08956F927F928F929F92AF92A8
S11313B0BF92CF92DF92EF92FF920F931F93CF933E
S11313C0DF93222309F43FC07A01862E982E990CCC
S11313D066246394690C8A01E20EF11C0F2EF9EB6A
S11313E0AF2EB12CF02DCCEBD0E00F2EF4E87F2EF5
S11313F0F02D0F2EFBEBCF2ED12CF02D0E94AA093D
S1131400892D0E94C209882D0E94C2090E94B60932
S1131410862D0E94C209F5018081887F8034D9F726
S1131420788288818823ECF7F6018081F801819322
S11314308F01F5018081887F8835D9F70E94CA0918
S11314400E151F05D9F6DF91CF911F910F91FF90D3
S1131450EF90DF90CF90BF90AF909F908F907F9050
S11314606F90089594EA9093BC004FEF50E060E0D1
S113147070E0ECEBF0E09081992334F04150510995
S113148061097109C0F704C0452B462B472B41F174
S11314909091B900987F983011F0903119F58093AC
S11314A0BB0084E88093BC008FEF90E0A0E0B0E044
S11314B0ECEBF0E0208122232CF00197A109B10983
S11314C0C8F704C0892B8A2B8B2B71F09091B9003B
S11314D0987F983159F081E0903449F480E0089580
S11314E081E0089581E0089581E0089580E0089501
S11314F084E98093BC0080E090E0ECEBF0E0208194
S113150024FF05C00196811521E09207C1F70895D3
S11315108093BB0084E88093BC008FEF90E0A0E050
S1131520B0E0ECEBF0E0208122232CF00197A1093C
S1131530B109C8F704C0892B8A2B8B2B41F09091F9
S1131540B900987F81E0983219F480E0089581E031
S1131550089584EC8093BC008FEF90E0A0E0B0E0AD
S1131560ECEBF0E0208122232CF00197A109B109D2
S1131570C8F704C0892B8A2B8B2B19F08091BB00F0
S1131580089580E0089584E88093BC008FEF90E094
S1131590A0E0B0E0ECEBF0E0208122232CF00197F6
S11315A0A109B109C8F704C0892B8A2B8B2B19F028
S11315B08091BB00089580E00895CF93DF93C0EC41
S11315C0D0E01882A1ECB0E01C92E2ECF0E01082D2
S11315D022E028839093C5008093C40088E08C9314
S11315E086E0808388818260888388818E7F888377
S11315F08C9188608C938C918B7F8C9380818F7B72
S1131600808380818F77808380818F7E80838081B7
S11316108F7D80838081877F8083808184608083C5
S1131620808182608083DF91CF910895E0ECF0E0C7
S1131630908195FFFDCF8093C60008955058BB2735
S1131640AA270E94360B0C947A0C0E946C0C38F07A
S11316500E94730C20F039F49F3F19F426F40C9483
S1131660690C0EF4E095E7FB0C94630CE92F0E94DF
S11316708B0C58F3BA17620773078407950720F099
S113168079F4A6F50C94AD0C0EF4E0950B2EBA2F5C
S1131690A02D0B01B90190010C01CA01A001112474
S11316A0FF27591B99F0593F50F4503E68F11A1620
S11316B0F040A22F232F342F4427585FF3CF4695B1
S11316C037952795A795F0405395C9F77EF41F16D3
S11316D0BA0B620B730B840BBAF09150A1F0FF0F9D
S11316E0BB1F661F771F881FC2F70EC0BA0F621F89
S11316F0731F841F48F4879577956795B795F79579
S11317009E3F08F0B0CF9395880F08F09927EE0F0D
S11317109795879508950E943F0C08F481E00895F9
S11317200E94A40B0C947A0C0E94730C58F00E9433
S11317306C0C40F029F45F3F29F00C94630C5111B8
S11317400C94AE0C0C94690C0E948B0C68F39923D6
S1131750B1F3552391F3951B550BBB27AA276217A9
S11317607307840738F09F5F5F4F220F331F441FB6
S1131770AA1FA9F335D00E2E3AF0E0E832D09150EA
S11317805040E695001CCAF72BD0FE2F29D0660FD7
S1131790771F881FBB1F261737074807AB07B0E81A
S11317A009F0BB0B802DBF01FF2793585F4F3AF020
S11317B09E3F510578F00C94630C0C94AE0C5F3F83
S11317C0E4F3983ED4F3869577956795B795F795A6
S11317D09F5FC9F7880F911D9695879597F908958E
S11317E0E1E0660F771F881FBB1F6217730784072A
S11317F0BA0720F0621B730B840BBA0BEE1F88F739
S1131800E0950895E89409C097FB3EF4909580957F
S1131810709561957F4F8F4F9F4F9923A9F0F92FB2
S113182096E9BB279395F695879577956795B79530
S1131830F111F8CFFAF4BB0F11F460FF1BC06F5F16
S11318407F4F8F4F9F4F16C0882311F096E911C028
S1131850772321F09EE8872F762F05C0662371F049
S113186096E8862F70E060E02AF09A95660F771F5D
S1131870881FDAF7880F9695879597F90895990F39
S11318800008550FAA0BE0E8FEEF16161706E80746
S1131890F907C0F012161306E407F50798F0621B67
S11318A0730B840B950B39F40A2661F0232B242B3C
S11318B0252B21F408950A2609F4A140A6958FEF5B
S11318C0811D811D089597F99F6780E870E060E0AD
S11318D008959FEF80EC089500240A9416161706C5
S11318E018060906089500240A941216130614060D
S11318F005060895092E0394000C11F4882352F070
S1131900BB0F40F4BF2B11F460FF04C06F5F7F4F27
S11319108F4F9F4F089557FD9058440F551F59F00E
S11319205F3F71F04795880F97FB991F61F09F3FC8
S113193079F087950895121613061406551FF2CFF1
S11319404695F1DF08C0161617061806991FF1CF41
S113195086957105610508940895E894BB27662768
S11319607727CB0197F908950E943F0C08F48FEF75
S113197008950E94CC0C0C947A0C0E946C0C38F0E4
S11319800E94730C20F0952311F00C94630C0C94BA
S1131990690C11240C94AE0C0E948B0C70F3959F6F
S11319A0C1F3950F50E0551F629FF001729FBB2752
S11319B0F00DB11D639FAA27F00DB11DAA1F649FEE
S11319C06627B00DA11D661F829F2227B00DA11DA1
S11319D0621F739FB00DA11D621F839FA00D611D27
S11319E0221F749F3327A00D611D231F849F600D48
S11319F0211D822F762F6A2F11249F5750409AF071
S1131A00F1F088234AF0EE0FFF1FBB1F661F771FFC
S1131A10881F91505040A9F79E3F510580F00C94C7
S1131A20630C0C94AE0C5F3FE4F3983ED4F38695BC
S1131A3077956795B795F795E7959F5FC1F7FE2B67
S1131A40880F911D9695879597F9089519F416F4C2
S1131A500C94690C0C946C0D0E94930CB8F39923AC
S1131A60C9F3B6F39F57550B87FF0E947A0D0024E4
S1131A70A0E640EA900180585695979528F4805C3A
S1131A80660F771F881F20F026173707480730F4A2
S1131A90621B730B840B202931294A2BA6951794BA
S1131AA00794202531254A2758F7660F771F881F8A
S1131AB020F026173707480730F4620B730B840BAA
S1131AC0200D311D411DA09581F7B901842F915836
S1131AD0880F9695879508959F3F31F0915020F493
S1131AE0879577956795B795880F911D96958795F6
S1131AF097F9089591505040660F771F881FD2F7C9
S1091B000895F894FFCFE4
S1071B060000803F18
S9030000FC
